{
	"arthmeticworks.sol": {
		"Maths": {
			"abi": [
				{
					"inputs": [
						{
							"internalType": "uint256",
							"name": "x",
							"type": "uint256"
						},
						{
							"internalType": "uint256",
							"name": "y",
							"type": "uint256"
						}
					],
					"name": "add",
					"outputs": [
						{
							"internalType": "uint256",
							"name": "",
							"type": "uint256"
						}
					],
					"stateMutability": "pure",
					"type": "function"
				},
				{
					"inputs": [
						{
							"internalType": "uint256",
							"name": "x",
							"type": "uint256"
						},
						{
							"internalType": "uint256",
							"name": "y",
							"type": "uint256"
						}
					],
					"name": "divide",
					"outputs": [
						{
							"internalType": "uint256",
							"name": "",
							"type": "uint256"
						}
					],
					"stateMutability": "pure",
					"type": "function"
				},
				{
					"inputs": [
						{
							"internalType": "uint256",
							"name": "x",
							"type": "uint256"
						},
						{
							"internalType": "uint256",
							"name": "y",
							"type": "uint256"
						}
					],
					"name": "multiply",
					"outputs": [
						{
							"internalType": "uint256",
							"name": "",
							"type": "uint256"
						}
					],
					"stateMutability": "pure",
					"type": "function"
				},
				{
					"inputs": [
						{
							"internalType": "uint256",
							"name": "x",
							"type": "uint256"
						},
						{
							"internalType": "uint256",
							"name": "y",
							"type": "uint256"
						}
					],
					"name": "sub",
					"outputs": [
						{
							"internalType": "uint256",
							"name": "",
							"type": "uint256"
						}
					],
					"stateMutability": "pure",
					"type": "function"
				}
			],
			"devdoc": {
				"kind": "dev",
				"methods": {},
				"version": 1
			},
			"evm": {
				"assembly": "    /* \"arthmeticworks.sol\":27:477  contract Maths {... */\n  mstore(0x40, 0x80)\n  callvalue\n  dup1\n  iszero\n  tag_1\n  jumpi\n  0x00\n  dup1\n  revert\ntag_1:\n  pop\n  dataSize(sub_0)\n  dup1\n  dataOffset(sub_0)\n  0x00\n  codecopy\n  0x00\n  return\nstop\n\nsub_0: assembly {\n        /* \"arthmeticworks.sol\":27:477  contract Maths {... */\n      mstore(0x40, 0x80)\n      callvalue\n      dup1\n      iszero\n      tag_1\n      jumpi\n      0x00\n      dup1\n      revert\n    tag_1:\n      pop\n      jumpi(tag_2, lt(calldatasize, 0x04))\n      shr(0xe0, calldataload(0x00))\n      dup1\n      0x165c4a16\n      eq\n      tag_3\n      jumpi\n      dup1\n      0x771602f7\n      eq\n      tag_4\n      jumpi\n      dup1\n      0xb67d77c5\n      eq\n      tag_5\n      jumpi\n      dup1\n      0xf88e9fbf\n      eq\n      tag_6\n      jumpi\n    tag_2:\n      0x00\n      dup1\n      revert\n        /* \"arthmeticworks.sol\":262:363  function multiply(uint x,uint y) external pure returns(uint) {... */\n    tag_3:\n      tag_7\n      0x04\n      dup1\n      calldatasize\n      sub\n      dup2\n      add\n      swap1\n      tag_8\n      swap2\n      swap1\n      tag_9\n      jump\t// in\n    tag_8:\n      tag_10\n      jump\t// in\n    tag_7:\n      mload(0x40)\n      tag_11\n      swap2\n      swap1\n      tag_12\n      jump\t// in\n    tag_11:\n      mload(0x40)\n      dup1\n      swap2\n      sub\n      swap1\n      return\n        /* \"arthmeticworks.sol\":54:150  function add(uint x,uint y) external pure returns(uint) {... */\n    tag_4:\n      tag_13\n      0x04\n      dup1\n      calldatasize\n      sub\n      dup2\n      add\n      swap1\n      tag_14\n      swap2\n      swap1\n      tag_9\n      jump\t// in\n    tag_14:\n      tag_15\n      jump\t// in\n    tag_13:\n      mload(0x40)\n      tag_16\n      swap2\n      swap1\n      tag_12\n      jump\t// in\n    tag_16:\n      mload(0x40)\n      dup1\n      swap2\n      sub\n      swap1\n      return\n        /* \"arthmeticworks.sol\":158:254  function sub(uint x,uint y) external pure returns(uint) {... */\n    tag_5:\n      tag_17\n      0x04\n      dup1\n      calldatasize\n      sub\n      dup2\n      add\n      swap1\n      tag_18\n      swap2\n      swap1\n      tag_9\n      jump\t// in\n    tag_18:\n      tag_19\n      jump\t// in\n    tag_17:\n      mload(0x40)\n      tag_20\n      swap2\n      swap1\n      tag_12\n      jump\t// in\n    tag_20:\n      mload(0x40)\n      dup1\n      swap2\n      sub\n      swap1\n      return\n        /* \"arthmeticworks.sol\":373:472  function divide(uint x,uint y) external pure returns(uint) {... */\n    tag_6:\n      tag_21\n      0x04\n      dup1\n      calldatasize\n      sub\n      dup2\n      add\n      swap1\n      tag_22\n      swap2\n      swap1\n      tag_9\n      jump\t// in\n    tag_22:\n      tag_23\n      jump\t// in\n    tag_21:\n      mload(0x40)\n      tag_24\n      swap2\n      swap1\n      tag_12\n      jump\t// in\n    tag_24:\n      mload(0x40)\n      dup1\n      swap2\n      sub\n      swap1\n      return\n        /* \"arthmeticworks.sol\":262:363  function multiply(uint x,uint y) external pure returns(uint) {... */\n    tag_10:\n        /* \"arthmeticworks.sol\":317:321  uint */\n      0x00\n        /* \"arthmeticworks.sol\":348:349  y */\n      dup2\n        /* \"arthmeticworks.sol\":346:347  x */\n      dup4\n        /* \"arthmeticworks.sol\":346:349  x*y */\n      tag_26\n      swap2\n      swap1\n      tag_27\n      jump\t// in\n    tag_26:\n        /* \"arthmeticworks.sol\":338:350  return (x*y) */\n      swap1\n      pop\n        /* \"arthmeticworks.sol\":262:363  function multiply(uint x,uint y) external pure returns(uint) {... */\n      swap3\n      swap2\n      pop\n      pop\n      jump\t// out\n        /* \"arthmeticworks.sol\":54:150  function add(uint x,uint y) external pure returns(uint) {... */\n    tag_15:\n        /* \"arthmeticworks.sol\":104:108  uint */\n      0x00\n        /* \"arthmeticworks.sol\":135:136  y */\n      dup2\n        /* \"arthmeticworks.sol\":133:134  x */\n      dup4\n        /* \"arthmeticworks.sol\":133:136  x+y */\n      tag_29\n      swap2\n      swap1\n      tag_30\n      jump\t// in\n    tag_29:\n        /* \"arthmeticworks.sol\":125:137  return (x+y) */\n      swap1\n      pop\n        /* \"arthmeticworks.sol\":54:150  function add(uint x,uint y) external pure returns(uint) {... */\n      swap3\n      swap2\n      pop\n      pop\n      jump\t// out\n        /* \"arthmeticworks.sol\":158:254  function sub(uint x,uint y) external pure returns(uint) {... */\n    tag_19:\n        /* \"arthmeticworks.sol\":208:212  uint */\n      0x00\n        /* \"arthmeticworks.sol\":239:240  y */\n      dup2\n        /* \"arthmeticworks.sol\":237:238  x */\n      dup4\n        /* \"arthmeticworks.sol\":237:240  x-y */\n      tag_32\n      swap2\n      swap1\n      tag_33\n      jump\t// in\n    tag_32:\n        /* \"arthmeticworks.sol\":229:241  return (x-y) */\n      swap1\n      pop\n        /* \"arthmeticworks.sol\":158:254  function sub(uint x,uint y) external pure returns(uint) {... */\n      swap3\n      swap2\n      pop\n      pop\n      jump\t// out\n        /* \"arthmeticworks.sol\":373:472  function divide(uint x,uint y) external pure returns(uint) {... */\n    tag_23:\n        /* \"arthmeticworks.sol\":426:430  uint */\n      0x00\n        /* \"arthmeticworks.sol\":457:458  y */\n      dup2\n        /* \"arthmeticworks.sol\":455:456  x */\n      dup4\n        /* \"arthmeticworks.sol\":455:458  x/y */\n      tag_35\n      swap2\n      swap1\n      tag_36\n      jump\t// in\n    tag_35:\n        /* \"arthmeticworks.sol\":447:459  return (x/y) */\n      swap1\n      pop\n        /* \"arthmeticworks.sol\":373:472  function divide(uint x,uint y) external pure returns(uint) {... */\n      swap3\n      swap2\n      pop\n      pop\n      jump\t// out\n        /* \"#utility.yul\":88:205   */\n    tag_38:\n        /* \"#utility.yul\":197:198   */\n      0x00\n        /* \"#utility.yul\":194:195   */\n      dup1\n        /* \"#utility.yul\":187:199   */\n      revert\n        /* \"#utility.yul\":334:411   */\n    tag_40:\n        /* \"#utility.yul\":371:378   */\n      0x00\n        /* \"#utility.yul\":400:405   */\n      dup2\n        /* \"#utility.yul\":389:405   */\n      swap1\n      pop\n        /* \"#utility.yul\":334:411   */\n      swap2\n      swap1\n      pop\n      jump\t// out\n        /* \"#utility.yul\":417:539   */\n    tag_41:\n        /* \"#utility.yul\":490:514   */\n      tag_52\n        /* \"#utility.yul\":508:513   */\n      dup2\n        /* \"#utility.yul\":490:514   */\n      tag_40\n      jump\t// in\n    tag_52:\n        /* \"#utility.yul\":483:488   */\n      dup2\n        /* \"#utility.yul\":480:515   */\n      eq\n        /* \"#utility.yul\":470:533   */\n      tag_53\n      jumpi\n        /* \"#utility.yul\":529:530   */\n      0x00\n        /* \"#utility.yul\":526:527   */\n      dup1\n        /* \"#utility.yul\":519:531   */\n      revert\n        /* \"#utility.yul\":470:533   */\n    tag_53:\n        /* \"#utility.yul\":417:539   */\n      pop\n      jump\t// out\n        /* \"#utility.yul\":545:684   */\n    tag_42:\n        /* \"#utility.yul\":591:596   */\n      0x00\n        /* \"#utility.yul\":629:635   */\n      dup2\n        /* \"#utility.yul\":616:636   */\n      calldataload\n        /* \"#utility.yul\":607:636   */\n      swap1\n      pop\n        /* \"#utility.yul\":645:678   */\n      tag_55\n        /* \"#utility.yul\":672:677   */\n      dup2\n        /* \"#utility.yul\":645:678   */\n      tag_41\n      jump\t// in\n    tag_55:\n        /* \"#utility.yul\":545:684   */\n      swap3\n      swap2\n      pop\n      pop\n      jump\t// out\n        /* \"#utility.yul\":690:1164   */\n    tag_9:\n        /* \"#utility.yul\":758:764   */\n      0x00\n        /* \"#utility.yul\":766:772   */\n      dup1\n        /* \"#utility.yul\":815:817   */\n      0x40\n        /* \"#utility.yul\":803:812   */\n      dup4\n        /* \"#utility.yul\":794:801   */\n      dup6\n        /* \"#utility.yul\":790:813   */\n      sub\n        /* \"#utility.yul\":786:818   */\n      slt\n        /* \"#utility.yul\":783:902   */\n      iszero\n      tag_57\n      jumpi\n        /* \"#utility.yul\":821:900   */\n      tag_58\n      tag_38\n      jump\t// in\n    tag_58:\n        /* \"#utility.yul\":783:902   */\n    tag_57:\n        /* \"#utility.yul\":941:942   */\n      0x00\n        /* \"#utility.yul\":966:1019   */\n      tag_59\n        /* \"#utility.yul\":1011:1018   */\n      dup6\n        /* \"#utility.yul\":1002:1008   */\n      dup3\n        /* \"#utility.yul\":991:1000   */\n      dup7\n        /* \"#utility.yul\":987:1009   */\n      add\n        /* \"#utility.yul\":966:1019   */\n      tag_42\n      jump\t// in\n    tag_59:\n        /* \"#utility.yul\":956:1019   */\n      swap3\n      pop\n        /* \"#utility.yul\":912:1029   */\n      pop\n        /* \"#utility.yul\":1068:1070   */\n      0x20\n        /* \"#utility.yul\":1094:1147   */\n      tag_60\n        /* \"#utility.yul\":1139:1146   */\n      dup6\n        /* \"#utility.yul\":1130:1136   */\n      dup3\n        /* \"#utility.yul\":1119:1128   */\n      dup7\n        /* \"#utility.yul\":1115:1137   */\n      add\n        /* \"#utility.yul\":1094:1147   */\n      tag_42\n      jump\t// in\n    tag_60:\n        /* \"#utility.yul\":1084:1147   */\n      swap2\n      pop\n        /* \"#utility.yul\":1039:1157   */\n      pop\n        /* \"#utility.yul\":690:1164   */\n      swap3\n      pop\n      swap3\n      swap1\n      pop\n      jump\t// out\n        /* \"#utility.yul\":1170:1288   */\n    tag_43:\n        /* \"#utility.yul\":1257:1281   */\n      tag_62\n        /* \"#utility.yul\":1275:1280   */\n      dup2\n        /* \"#utility.yul\":1257:1281   */\n      tag_40\n      jump\t// in\n    tag_62:\n        /* \"#utility.yul\":1252:1255   */\n      dup3\n        /* \"#utility.yul\":1245:1282   */\n      mstore\n        /* \"#utility.yul\":1170:1288   */\n      pop\n      pop\n      jump\t// out\n        /* \"#utility.yul\":1294:1516   */\n    tag_12:\n        /* \"#utility.yul\":1387:1391   */\n      0x00\n        /* \"#utility.yul\":1425:1427   */\n      0x20\n        /* \"#utility.yul\":1414:1423   */\n      dup3\n        /* \"#utility.yul\":1410:1428   */\n      add\n        /* \"#utility.yul\":1402:1428   */\n      swap1\n      pop\n        /* \"#utility.yul\":1438:1509   */\n      tag_64\n        /* \"#utility.yul\":1506:1507   */\n      0x00\n        /* \"#utility.yul\":1495:1504   */\n      dup4\n        /* \"#utility.yul\":1491:1508   */\n      add\n        /* \"#utility.yul\":1482:1488   */\n      dup5\n        /* \"#utility.yul\":1438:1509   */\n      tag_43\n      jump\t// in\n    tag_64:\n        /* \"#utility.yul\":1294:1516   */\n      swap3\n      swap2\n      pop\n      pop\n      jump\t// out\n        /* \"#utility.yul\":1522:1702   */\n    tag_44:\n        /* \"#utility.yul\":1570:1647   */\n      0x4e487b7100000000000000000000000000000000000000000000000000000000\n        /* \"#utility.yul\":1567:1568   */\n      0x00\n        /* \"#utility.yul\":1560:1648   */\n      mstore\n        /* \"#utility.yul\":1667:1671   */\n      0x11\n        /* \"#utility.yul\":1664:1665   */\n      0x04\n        /* \"#utility.yul\":1657:1672   */\n      mstore\n        /* \"#utility.yul\":1691:1695   */\n      0x24\n        /* \"#utility.yul\":1688:1689   */\n      0x00\n        /* \"#utility.yul\":1681:1696   */\n      revert\n        /* \"#utility.yul\":1708:2118   */\n    tag_27:\n        /* \"#utility.yul\":1748:1755   */\n      0x00\n        /* \"#utility.yul\":1771:1791   */\n      tag_67\n        /* \"#utility.yul\":1789:1790   */\n      dup3\n        /* \"#utility.yul\":1771:1791   */\n      tag_40\n      jump\t// in\n    tag_67:\n        /* \"#utility.yul\":1766:1791   */\n      swap2\n      pop\n        /* \"#utility.yul\":1805:1825   */\n      tag_68\n        /* \"#utility.yul\":1823:1824   */\n      dup4\n        /* \"#utility.yul\":1805:1825   */\n      tag_40\n      jump\t// in\n    tag_68:\n        /* \"#utility.yul\":1800:1825   */\n      swap3\n      pop\n        /* \"#utility.yul\":1860:1861   */\n      dup3\n        /* \"#utility.yul\":1857:1858   */\n      dup3\n        /* \"#utility.yul\":1853:1862   */\n      mul\n        /* \"#utility.yul\":1882:1912   */\n      tag_69\n        /* \"#utility.yul\":1900:1911   */\n      dup2\n        /* \"#utility.yul\":1882:1912   */\n      tag_40\n      jump\t// in\n    tag_69:\n        /* \"#utility.yul\":1871:1912   */\n      swap2\n      pop\n        /* \"#utility.yul\":2061:2062   */\n      dup3\n        /* \"#utility.yul\":2052:2059   */\n      dup3\n        /* \"#utility.yul\":2048:2063   */\n      div\n        /* \"#utility.yul\":2045:2046   */\n      dup5\n        /* \"#utility.yul\":2042:2064   */\n      eq\n        /* \"#utility.yul\":2022:2023   */\n      dup4\n        /* \"#utility.yul\":2015:2024   */\n      iszero\n        /* \"#utility.yul\":1995:2078   */\n      or\n        /* \"#utility.yul\":1972:2111   */\n      tag_70\n      jumpi\n        /* \"#utility.yul\":2091:2109   */\n      tag_71\n      tag_44\n      jump\t// in\n    tag_71:\n        /* \"#utility.yul\":1972:2111   */\n    tag_70:\n        /* \"#utility.yul\":1756:2118   */\n      pop\n        /* \"#utility.yul\":1708:2118   */\n      swap3\n      swap2\n      pop\n      pop\n      jump\t// out\n        /* \"#utility.yul\":2124:2315   */\n    tag_30:\n        /* \"#utility.yul\":2164:2167   */\n      0x00\n        /* \"#utility.yul\":2183:2203   */\n      tag_73\n        /* \"#utility.yul\":2201:2202   */\n      dup3\n        /* \"#utility.yul\":2183:2203   */\n      tag_40\n      jump\t// in\n    tag_73:\n        /* \"#utility.yul\":2178:2203   */\n      swap2\n      pop\n        /* \"#utility.yul\":2217:2237   */\n      tag_74\n        /* \"#utility.yul\":2235:2236   */\n      dup4\n        /* \"#utility.yul\":2217:2237   */\n      tag_40\n      jump\t// in\n    tag_74:\n        /* \"#utility.yul\":2212:2237   */\n      swap3\n      pop\n        /* \"#utility.yul\":2260:2261   */\n      dup3\n        /* \"#utility.yul\":2257:2258   */\n      dup3\n        /* \"#utility.yul\":2253:2262   */\n      add\n        /* \"#utility.yul\":2246:2262   */\n      swap1\n      pop\n        /* \"#utility.yul\":2281:2284   */\n      dup1\n        /* \"#utility.yul\":2278:2279   */\n      dup3\n        /* \"#utility.yul\":2275:2285   */\n      gt\n        /* \"#utility.yul\":2272:2308   */\n      iszero\n      tag_75\n      jumpi\n        /* \"#utility.yul\":2288:2306   */\n      tag_76\n      tag_44\n      jump\t// in\n    tag_76:\n        /* \"#utility.yul\":2272:2308   */\n    tag_75:\n        /* \"#utility.yul\":2124:2315   */\n      swap3\n      swap2\n      pop\n      pop\n      jump\t// out\n        /* \"#utility.yul\":2321:2515   */\n    tag_33:\n        /* \"#utility.yul\":2361:2365   */\n      0x00\n        /* \"#utility.yul\":2381:2401   */\n      tag_78\n        /* \"#utility.yul\":2399:2400   */\n      dup3\n        /* \"#utility.yul\":2381:2401   */\n      tag_40\n      jump\t// in\n    tag_78:\n        /* \"#utility.yul\":2376:2401   */\n      swap2\n      pop\n        /* \"#utility.yul\":2415:2435   */\n      tag_79\n        /* \"#utility.yul\":2433:2434   */\n      dup4\n        /* \"#utility.yul\":2415:2435   */\n      tag_40\n      jump\t// in\n    tag_79:\n        /* \"#utility.yul\":2410:2435   */\n      swap3\n      pop\n        /* \"#utility.yul\":2459:2460   */\n      dup3\n        /* \"#utility.yul\":2456:2457   */\n      dup3\n        /* \"#utility.yul\":2452:2461   */\n      sub\n        /* \"#utility.yul\":2444:2461   */\n      swap1\n      pop\n        /* \"#utility.yul\":2483:2484   */\n      dup2\n        /* \"#utility.yul\":2477:2481   */\n      dup2\n        /* \"#utility.yul\":2474:2485   */\n      gt\n        /* \"#utility.yul\":2471:2508   */\n      iszero\n      tag_80\n      jumpi\n        /* \"#utility.yul\":2488:2506   */\n      tag_81\n      tag_44\n      jump\t// in\n    tag_81:\n        /* \"#utility.yul\":2471:2508   */\n    tag_80:\n        /* \"#utility.yul\":2321:2515   */\n      swap3\n      swap2\n      pop\n      pop\n      jump\t// out\n        /* \"#utility.yul\":2521:2701   */\n    tag_45:\n        /* \"#utility.yul\":2569:2646   */\n      0x4e487b7100000000000000000000000000000000000000000000000000000000\n        /* \"#utility.yul\":2566:2567   */\n      0x00\n        /* \"#utility.yul\":2559:2647   */\n      mstore\n        /* \"#utility.yul\":2666:2670   */\n      0x12\n        /* \"#utility.yul\":2663:2664   */\n      0x04\n        /* \"#utility.yul\":2656:2671   */\n      mstore\n        /* \"#utility.yul\":2690:2694   */\n      0x24\n        /* \"#utility.yul\":2687:2688   */\n      0x00\n        /* \"#utility.yul\":2680:2695   */\n      revert\n        /* \"#utility.yul\":2707:2892   */\n    tag_36:\n        /* \"#utility.yul\":2747:2748   */\n      0x00\n        /* \"#utility.yul\":2764:2784   */\n      tag_84\n        /* \"#utility.yul\":2782:2783   */\n      dup3\n        /* \"#utility.yul\":2764:2784   */\n      tag_40\n      jump\t// in\n    tag_84:\n        /* \"#utility.yul\":2759:2784   */\n      swap2\n      pop\n        /* \"#utility.yul\":2798:2818   */\n      tag_85\n        /* \"#utility.yul\":2816:2817   */\n      dup4\n        /* \"#utility.yul\":2798:2818   */\n      tag_40\n      jump\t// in\n    tag_85:\n        /* \"#utility.yul\":2793:2818   */\n      swap3\n      pop\n        /* \"#utility.yul\":2837:2838   */\n      dup3\n        /* \"#utility.yul\":2827:2862   */\n      tag_86\n      jumpi\n        /* \"#utility.yul\":2842:2860   */\n      tag_87\n      tag_45\n      jump\t// in\n    tag_87:\n        /* \"#utility.yul\":2827:2862   */\n    tag_86:\n        /* \"#utility.yul\":2884:2885   */\n      dup3\n        /* \"#utility.yul\":2881:2882   */\n      dup3\n        /* \"#utility.yul\":2877:2886   */\n      div\n        /* \"#utility.yul\":2872:2886   */\n      swap1\n      pop\n        /* \"#utility.yul\":2707:2892   */\n      swap3\n      swap2\n      pop\n      pop\n      jump\t// out\n\n    auxdata: 0xa2646970667358221220cc2b8e7ab629233253260f264f43d79fb07a2d30ea970467c734c3ae07670aea64736f6c634300081a0033\n}\n",
				"bytecode": {
					"linkReferences": {},
					"object": "6080604052348015600e575f80fd5b506103668061001c5f395ff3fe608060405234801561000f575f80fd5b506004361061004a575f3560e01c8063165c4a161461004e578063771602f71461007e578063b67d77c5146100ae578063f88e9fbf146100de575b5f80fd5b61006860048036038101906100639190610199565b61010e565b60405161007591906101e6565b60405180910390f35b61009860048036038101906100939190610199565b610123565b6040516100a591906101e6565b60405180910390f35b6100c860048036038101906100c39190610199565b610138565b6040516100d591906101e6565b60405180910390f35b6100f860048036038101906100f39190610199565b61014d565b60405161010591906101e6565b60405180910390f35b5f818361011b919061022c565b905092915050565b5f8183610130919061026d565b905092915050565b5f818361014591906102a0565b905092915050565b5f818361015a9190610300565b905092915050565b5f80fd5b5f819050919050565b61017881610166565b8114610182575f80fd5b50565b5f813590506101938161016f565b92915050565b5f80604083850312156101af576101ae610162565b5b5f6101bc85828601610185565b92505060206101cd85828601610185565b9150509250929050565b6101e081610166565b82525050565b5f6020820190506101f95f8301846101d7565b92915050565b7f4e487b71000000000000000000000000000000000000000000000000000000005f52601160045260245ffd5b5f61023682610166565b915061024183610166565b925082820261024f81610166565b91508282048414831517610266576102656101ff565b5b5092915050565b5f61027782610166565b915061028283610166565b925082820190508082111561029a576102996101ff565b5b92915050565b5f6102aa82610166565b91506102b583610166565b92508282039050818111156102cd576102cc6101ff565b5b92915050565b7f4e487b71000000000000000000000000000000000000000000000000000000005f52601260045260245ffd5b5f61030a82610166565b915061031583610166565b925082610325576103246102d3565b5b82820490509291505056fea2646970667358221220cc2b8e7ab629233253260f264f43d79fb07a2d30ea970467c734c3ae07670aea64736f6c634300081a0033",
					"opcodes": "PUSH1 0x80 PUSH1 0x40 MSTORE CALLVALUE DUP1 ISZERO PUSH1 0xE JUMPI PUSH0 DUP1 REVERT JUMPDEST POP PUSH2 0x366 DUP1 PUSH2 0x1C PUSH0 CODECOPY PUSH0 RETURN INVALID PUSH1 0x80 PUSH1 0x40 MSTORE CALLVALUE DUP1 ISZERO PUSH2 0xF JUMPI PUSH0 DUP1 REVERT JUMPDEST POP PUSH1 0x4 CALLDATASIZE LT PUSH2 0x4A JUMPI PUSH0 CALLDATALOAD PUSH1 0xE0 SHR DUP1 PUSH4 0x165C4A16 EQ PUSH2 0x4E JUMPI DUP1 PUSH4 0x771602F7 EQ PUSH2 0x7E JUMPI DUP1 PUSH4 0xB67D77C5 EQ PUSH2 0xAE JUMPI DUP1 PUSH4 0xF88E9FBF EQ PUSH2 0xDE JUMPI JUMPDEST PUSH0 DUP1 REVERT JUMPDEST PUSH2 0x68 PUSH1 0x4 DUP1 CALLDATASIZE SUB DUP2 ADD SWAP1 PUSH2 0x63 SWAP2 SWAP1 PUSH2 0x199 JUMP JUMPDEST PUSH2 0x10E JUMP JUMPDEST PUSH1 0x40 MLOAD PUSH2 0x75 SWAP2 SWAP1 PUSH2 0x1E6 JUMP JUMPDEST PUSH1 0x40 MLOAD DUP1 SWAP2 SUB SWAP1 RETURN JUMPDEST PUSH2 0x98 PUSH1 0x4 DUP1 CALLDATASIZE SUB DUP2 ADD SWAP1 PUSH2 0x93 SWAP2 SWAP1 PUSH2 0x199 JUMP JUMPDEST PUSH2 0x123 JUMP JUMPDEST PUSH1 0x40 MLOAD PUSH2 0xA5 SWAP2 SWAP1 PUSH2 0x1E6 JUMP JUMPDEST PUSH1 0x40 MLOAD DUP1 SWAP2 SUB SWAP1 RETURN JUMPDEST PUSH2 0xC8 PUSH1 0x4 DUP1 CALLDATASIZE SUB DUP2 ADD SWAP1 PUSH2 0xC3 SWAP2 SWAP1 PUSH2 0x199 JUMP JUMPDEST PUSH2 0x138 JUMP JUMPDEST PUSH1 0x40 MLOAD PUSH2 0xD5 SWAP2 SWAP1 PUSH2 0x1E6 JUMP JUMPDEST PUSH1 0x40 MLOAD DUP1 SWAP2 SUB SWAP1 RETURN JUMPDEST PUSH2 0xF8 PUSH1 0x4 DUP1 CALLDATASIZE SUB DUP2 ADD SWAP1 PUSH2 0xF3 SWAP2 SWAP1 PUSH2 0x199 JUMP JUMPDEST PUSH2 0x14D JUMP JUMPDEST PUSH1 0x40 MLOAD PUSH2 0x105 SWAP2 SWAP1 PUSH2 0x1E6 JUMP JUMPDEST PUSH1 0x40 MLOAD DUP1 SWAP2 SUB SWAP1 RETURN JUMPDEST PUSH0 DUP2 DUP4 PUSH2 0x11B SWAP2 SWAP1 PUSH2 0x22C JUMP JUMPDEST SWAP1 POP SWAP3 SWAP2 POP POP JUMP JUMPDEST PUSH0 DUP2 DUP4 PUSH2 0x130 SWAP2 SWAP1 PUSH2 0x26D JUMP JUMPDEST SWAP1 POP SWAP3 SWAP2 POP POP JUMP JUMPDEST PUSH0 DUP2 DUP4 PUSH2 0x145 SWAP2 SWAP1 PUSH2 0x2A0 JUMP JUMPDEST SWAP1 POP SWAP3 SWAP2 POP POP JUMP JUMPDEST PUSH0 DUP2 DUP4 PUSH2 0x15A SWAP2 SWAP1 PUSH2 0x300 JUMP JUMPDEST SWAP1 POP SWAP3 SWAP2 POP POP JUMP JUMPDEST PUSH0 DUP1 REVERT JUMPDEST PUSH0 DUP2 SWAP1 POP SWAP2 SWAP1 POP JUMP JUMPDEST PUSH2 0x178 DUP2 PUSH2 0x166 JUMP JUMPDEST DUP2 EQ PUSH2 0x182 JUMPI PUSH0 DUP1 REVERT JUMPDEST POP JUMP JUMPDEST PUSH0 DUP2 CALLDATALOAD SWAP1 POP PUSH2 0x193 DUP2 PUSH2 0x16F JUMP JUMPDEST SWAP3 SWAP2 POP POP JUMP JUMPDEST PUSH0 DUP1 PUSH1 0x40 DUP4 DUP6 SUB SLT ISZERO PUSH2 0x1AF JUMPI PUSH2 0x1AE PUSH2 0x162 JUMP JUMPDEST JUMPDEST PUSH0 PUSH2 0x1BC DUP6 DUP3 DUP7 ADD PUSH2 0x185 JUMP JUMPDEST SWAP3 POP POP PUSH1 0x20 PUSH2 0x1CD DUP6 DUP3 DUP7 ADD PUSH2 0x185 JUMP JUMPDEST SWAP2 POP POP SWAP3 POP SWAP3 SWAP1 POP JUMP JUMPDEST PUSH2 0x1E0 DUP2 PUSH2 0x166 JUMP JUMPDEST DUP3 MSTORE POP POP JUMP JUMPDEST PUSH0 PUSH1 0x20 DUP3 ADD SWAP1 POP PUSH2 0x1F9 PUSH0 DUP4 ADD DUP5 PUSH2 0x1D7 JUMP JUMPDEST SWAP3 SWAP2 POP POP JUMP JUMPDEST PUSH32 0x4E487B7100000000000000000000000000000000000000000000000000000000 PUSH0 MSTORE PUSH1 0x11 PUSH1 0x4 MSTORE PUSH1 0x24 PUSH0 REVERT JUMPDEST PUSH0 PUSH2 0x236 DUP3 PUSH2 0x166 JUMP JUMPDEST SWAP2 POP PUSH2 0x241 DUP4 PUSH2 0x166 JUMP JUMPDEST SWAP3 POP DUP3 DUP3 MUL PUSH2 0x24F DUP2 PUSH2 0x166 JUMP JUMPDEST SWAP2 POP DUP3 DUP3 DIV DUP5 EQ DUP4 ISZERO OR PUSH2 0x266 JUMPI PUSH2 0x265 PUSH2 0x1FF JUMP JUMPDEST JUMPDEST POP SWAP3 SWAP2 POP POP JUMP JUMPDEST PUSH0 PUSH2 0x277 DUP3 PUSH2 0x166 JUMP JUMPDEST SWAP2 POP PUSH2 0x282 DUP4 PUSH2 0x166 JUMP JUMPDEST SWAP3 POP DUP3 DUP3 ADD SWAP1 POP DUP1 DUP3 GT ISZERO PUSH2 0x29A JUMPI PUSH2 0x299 PUSH2 0x1FF JUMP JUMPDEST JUMPDEST SWAP3 SWAP2 POP POP JUMP JUMPDEST PUSH0 PUSH2 0x2AA DUP3 PUSH2 0x166 JUMP JUMPDEST SWAP2 POP PUSH2 0x2B5 DUP4 PUSH2 0x166 JUMP JUMPDEST SWAP3 POP DUP3 DUP3 SUB SWAP1 POP DUP2 DUP2 GT ISZERO PUSH2 0x2CD JUMPI PUSH2 0x2CC PUSH2 0x1FF JUMP JUMPDEST JUMPDEST SWAP3 SWAP2 POP POP JUMP JUMPDEST PUSH32 0x4E487B7100000000000000000000000000000000000000000000000000000000 PUSH0 MSTORE PUSH1 0x12 PUSH1 0x4 MSTORE PUSH1 0x24 PUSH0 REVERT JUMPDEST PUSH0 PUSH2 0x30A DUP3 PUSH2 0x166 JUMP JUMPDEST SWAP2 POP PUSH2 0x315 DUP4 PUSH2 0x166 JUMP JUMPDEST SWAP3 POP DUP3 PUSH2 0x325 JUMPI PUSH2 0x324 PUSH2 0x2D3 JUMP JUMPDEST JUMPDEST DUP3 DUP3 DIV SWAP1 POP SWAP3 SWAP2 POP POP JUMP INVALID LOG2 PUSH5 0x6970667358 0x22 SLT KECCAK256 0xCC 0x2B DUP15 PUSH27 0xB629233253260F264F43D79FB07A2D30EA970467C734C3AE07670A 0xEA PUSH5 0x736F6C6343 STOP ADDMOD BYTE STOP CALLER "
				},
				"gasEstimates": {
					"creation": {
						"codeDepositCost": "174000",
						"executionCost": "218",
						"totalCost": "174218"
					},
					"external": {
						"add(uint256,uint256)": "infinite",
						"divide(uint256,uint256)": "infinite",
						"multiply(uint256,uint256)": "infinite",
						"sub(uint256,uint256)": "infinite"
					}
				},
				"methodIdentifiers": {
					"add(uint256,uint256)": "771602f7",
					"divide(uint256,uint256)": "f88e9fbf",
					"multiply(uint256,uint256)": "165c4a16",
					"sub(uint256,uint256)": "b67d77c5"
				}
			},
			"storageLayout": {
				"storage": [],
				"types": null
			},
			"userdoc": {
				"kind": "user",
				"methods": {},
				"version": 1
			}
		}
	}
}